{
  "_format": "hh-sol-artifact-1",
  "contractName": "Airdropper",
  "sourceName": "contracts/airdropper/Airdropper.sol",
  "abi": [
    {
      "inputs": [
        {
          "internalType": "address",
          "name": "_token",
          "type": "address"
        }
      ],
      "stateMutability": "nonpayable",
      "type": "constructor"
    },
    {
      "anonymous": false,
      "inputs": [
        {
          "indexed": true,
          "internalType": "address",
          "name": "previousOwner",
          "type": "address"
        },
        {
          "indexed": true,
          "internalType": "address",
          "name": "newOwner",
          "type": "address"
        }
      ],
      "name": "OwnershipTransferred",
      "type": "event"
    },
    {
      "inputs": [],
      "name": "owner",
      "outputs": [
        {
          "internalType": "address",
          "name": "",
          "type": "address"
        }
      ],
      "stateMutability": "view",
      "type": "function"
    },
    {
      "inputs": [],
      "name": "renounceOwnership",
      "outputs": [],
      "stateMutability": "nonpayable",
      "type": "function"
    },
    {
      "inputs": [
        {
          "internalType": "address",
          "name": "newOwner",
          "type": "address"
        }
      ],
      "name": "transferOwnership",
      "outputs": [],
      "stateMutability": "nonpayable",
      "type": "function"
    },
    {
      "inputs": [
        {
          "internalType": "address[]",
          "name": "_receivers",
          "type": "address[]"
        },
        {
          "internalType": "uint256",
          "name": "_amount",
          "type": "uint256"
        }
      ],
      "name": "transferToUsers",
      "outputs": [],
      "stateMutability": "nonpayable",
      "type": "function"
    },
    {
      "inputs": [],
      "name": "treeb",
      "outputs": [
        {
          "internalType": "contract IERC20",
          "name": "",
          "type": "address"
        }
      ],
      "stateMutability": "view",
      "type": "function"
    },
    {
      "inputs": [],
      "name": "withdrawResidualToken",
      "outputs": [],
      "stateMutability": "nonpayable",
      "type": "function"
    }
  ],
  "bytecode": "0x60a06040523480156200001157600080fd5b506040516200134538038062001345833981810160405281019062000037919062000178565b620000576200004b6200009560201b60201c565b6200009d60201b60201c565b8073ffffffffffffffffffffffffffffffffffffffff1660808173ffffffffffffffffffffffffffffffffffffffff1660601b8152505050620001f2565b600033905090565b60008060009054906101000a900473ffffffffffffffffffffffffffffffffffffffff169050816000806101000a81548173ffffffffffffffffffffffffffffffffffffffff021916908373ffffffffffffffffffffffffffffffffffffffff1602179055508173ffffffffffffffffffffffffffffffffffffffff168173ffffffffffffffffffffffffffffffffffffffff167f8be0079c531659141344cd1fd0a4f28419497f9722a3daafe3b4186f6b6457e060405160405180910390a35050565b6000815190506200017281620001d8565b92915050565b6000602082840312156200018b57600080fd5b60006200019b8482850162000161565b91505092915050565b6000620001b182620001b8565b9050919050565b600073ffffffffffffffffffffffffffffffffffffffff82169050919050565b620001e381620001a4565b8114620001ef57600080fd5b50565b60805160601c611120620002256000396000818160f1015281816102930152818161036f015261042601526111206000f3fe608060405234801561001057600080fd5b50600436106100625760003560e01c806363451d4114610067578063715018a6146100855780638da5cb5b1461008f5780639f2e35d8146100ad578063d29d6462146100c9578063f2fde38b146100d3575b600080fd5b61006f6100ef565b60405161007c9190610c7e565b60405180910390f35b61008d610113565b005b61009761019b565b6040516100a49190610c3a565b60405180910390f35b6100c760048036038101906100c29190610a37565b6101c4565b005b6100d16102ef565b005b6100ed60048036038101906100e89190610a0e565b61046d565b005b7f000000000000000000000000000000000000000000000000000000000000000081565b61011b610565565b73ffffffffffffffffffffffffffffffffffffffff1661013961019b565b73ffffffffffffffffffffffffffffffffffffffff161461018f576040517f08c379a000000000000000000000000000000000000000000000000000000000815260040161018690610cfb565b60405180910390fd5b610199600061056d565b565b60008060009054906101000a900473ffffffffffffffffffffffffffffffffffffffff16905090565b6101cc610565565b73ffffffffffffffffffffffffffffffffffffffff166101ea61019b565b73ffffffffffffffffffffffffffffffffffffffff1614610240576040517f08c379a000000000000000000000000000000000000000000000000000000000815260040161023790610cfb565b60405180910390fd5b60005b82518110156102ea576102d7838281518110610288577f4e487b7100000000000000000000000000000000000000000000000000000000600052603260045260246000fd5b6020026020010151837f000000000000000000000000000000000000000000000000000000000000000073ffffffffffffffffffffffffffffffffffffffff166106319092919063ffffffff16565b80806102e290610eae565b915050610243565b505050565b6102f7610565565b73ffffffffffffffffffffffffffffffffffffffff1661031561019b565b73ffffffffffffffffffffffffffffffffffffffff161461036b576040517f08c379a000000000000000000000000000000000000000000000000000000000815260040161036290610cfb565b60405180910390fd5b60007f000000000000000000000000000000000000000000000000000000000000000073ffffffffffffffffffffffffffffffffffffffff166370a08231306040518263ffffffff1660e01b81526004016103c69190610c3a565b60206040518083038186803b1580156103de57600080fd5b505afa1580156103f2573d6000803e3d6000fd5b505050506040513d601f19601f820116820180604052508101906104169190610ab4565b905061046a61042361019b565b827f000000000000000000000000000000000000000000000000000000000000000073ffffffffffffffffffffffffffffffffffffffff166106319092919063ffffffff16565b50565b610475610565565b73ffffffffffffffffffffffffffffffffffffffff1661049361019b565b73ffffffffffffffffffffffffffffffffffffffff16146104e9576040517f08c379a00000000000000000000000000000000000000000000000000000000081526004016104e090610cfb565b60405180910390fd5b600073ffffffffffffffffffffffffffffffffffffffff168173ffffffffffffffffffffffffffffffffffffffff161415610559576040517f08c379a000000000000000000000000000000000000000000000000000000000815260040161055090610cbb565b60405180910390fd5b6105628161056d565b50565b600033905090565b60008060009054906101000a900473ffffffffffffffffffffffffffffffffffffffff169050816000806101000a81548173ffffffffffffffffffffffffffffffffffffffff021916908373ffffffffffffffffffffffffffffffffffffffff1602179055508173ffffffffffffffffffffffffffffffffffffffff168173ffffffffffffffffffffffffffffffffffffffff167f8be0079c531659141344cd1fd0a4f28419497f9722a3daafe3b4186f6b6457e060405160405180910390a35050565b6106b28363a9059cbb60e01b8484604051602401610650929190610c55565b604051602081830303815290604052907bffffffffffffffffffffffffffffffffffffffffffffffffffffffff19166020820180517bffffffffffffffffffffffffffffffffffffffffffffffffffffffff83818316178352505050506106b7565b505050565b6000610719826040518060400160405280602081526020017f5361666545524332303a206c6f772d6c6576656c2063616c6c206661696c65648152508573ffffffffffffffffffffffffffffffffffffffff1661077e9092919063ffffffff16565b905060008151111561077957808060200190518101906107399190610a8b565b610778576040517f08c379a000000000000000000000000000000000000000000000000000000000815260040161076f90610d3b565b60405180910390fd5b5b505050565b606061078d8484600085610796565b90509392505050565b6060824710156107db576040517f08c379a00000000000000000000000000000000000000000000000000000000081526004016107d290610cdb565b60405180910390fd5b6107e4856108aa565b610823576040517f08c379a000000000000000000000000000000000000000000000000000000000815260040161081a90610d1b565b60405180910390fd5b6000808673ffffffffffffffffffffffffffffffffffffffff16858760405161084c9190610c23565b60006040518083038185875af1925050503d8060008114610889576040519150601f19603f3d011682016040523d82523d6000602084013e61088e565b606091505b509150915061089e8282866108bd565b92505050949350505050565b600080823b905060008111915050919050565b606083156108cd5782905061091d565b6000835111156108e05782518084602001fd5b816040517f08c379a00000000000000000000000000000000000000000000000000000000081526004016109149190610c99565b60405180910390fd5b9392505050565b600061093761093284610d80565b610d5b565b9050808382526020820190508285602086028201111561095657600080fd5b60005b85811015610986578161096c8882610990565b845260208401935060208301925050600181019050610959565b5050509392505050565b60008135905061099f816110a5565b92915050565b600082601f8301126109b657600080fd5b81356109c6848260208601610924565b91505092915050565b6000815190506109de816110bc565b92915050565b6000813590506109f3816110d3565b92915050565b600081519050610a08816110d3565b92915050565b600060208284031215610a2057600080fd5b6000610a2e84828501610990565b91505092915050565b60008060408385031215610a4a57600080fd5b600083013567ffffffffffffffff811115610a6457600080fd5b610a70858286016109a5565b9250506020610a81858286016109e4565b9150509250929050565b600060208284031215610a9d57600080fd5b6000610aab848285016109cf565b91505092915050565b600060208284031215610ac657600080fd5b6000610ad4848285016109f9565b91505092915050565b610ae681610dde565b82525050565b6000610af782610dac565b610b018185610dc2565b9350610b11818560208601610e4a565b80840191505092915050565b610b2681610e26565b82525050565b6000610b3782610db7565b610b418185610dcd565b9350610b51818560208601610e4a565b610b5a81610f55565b840191505092915050565b6000610b72602683610dcd565b9150610b7d82610f66565b604082019050919050565b6000610b95602683610dcd565b9150610ba082610fb5565b604082019050919050565b6000610bb8602083610dcd565b9150610bc382611004565b602082019050919050565b6000610bdb601d83610dcd565b9150610be68261102d565b602082019050919050565b6000610bfe602a83610dcd565b9150610c0982611056565b604082019050919050565b610c1d81610e1c565b82525050565b6000610c2f8284610aec565b915081905092915050565b6000602082019050610c4f6000830184610add565b92915050565b6000604082019050610c6a6000830185610add565b610c776020830184610c14565b9392505050565b6000602082019050610c936000830184610b1d565b92915050565b60006020820190508181036000830152610cb38184610b2c565b905092915050565b60006020820190508181036000830152610cd481610b65565b9050919050565b60006020820190508181036000830152610cf481610b88565b9050919050565b60006020820190508181036000830152610d1481610bab565b9050919050565b60006020820190508181036000830152610d3481610bce565b9050919050565b60006020820190508181036000830152610d5481610bf1565b9050919050565b6000610d65610d76565b9050610d718282610e7d565b919050565b6000604051905090565b600067ffffffffffffffff821115610d9b57610d9a610f26565b5b602082029050602081019050919050565b600081519050919050565b600081519050919050565b600081905092915050565b600082825260208201905092915050565b6000610de982610dfc565b9050919050565b60008115159050919050565b600073ffffffffffffffffffffffffffffffffffffffff82169050919050565b6000819050919050565b6000610e3182610e38565b9050919050565b6000610e4382610dfc565b9050919050565b60005b83811015610e68578082015181840152602081019050610e4d565b83811115610e77576000848401525b50505050565b610e8682610f55565b810181811067ffffffffffffffff82111715610ea557610ea4610f26565b5b80604052505050565b6000610eb982610e1c565b91507fffffffffffffffffffffffffffffffffffffffffffffffffffffffffffffffff821415610eec57610eeb610ef7565b5b600182019050919050565b7f4e487b7100000000000000000000000000000000000000000000000000000000600052601160045260246000fd5b7f4e487b7100000000000000000000000000000000000000000000000000000000600052604160045260246000fd5b6000601f19601f8301169050919050565b7f4f776e61626c653a206e6577206f776e657220697320746865207a65726f206160008201527f6464726573730000000000000000000000000000000000000000000000000000602082015250565b7f416464726573733a20696e73756666696369656e742062616c616e636520666f60008201527f722063616c6c0000000000000000000000000000000000000000000000000000602082015250565b7f4f776e61626c653a2063616c6c6572206973206e6f7420746865206f776e6572600082015250565b7f416464726573733a2063616c6c20746f206e6f6e2d636f6e7472616374000000600082015250565b7f5361666545524332303a204552433230206f7065726174696f6e20646964206e60008201527f6f74207375636365656400000000000000000000000000000000000000000000602082015250565b6110ae81610dde565b81146110b957600080fd5b50565b6110c581610df0565b81146110d057600080fd5b50565b6110dc81610e1c565b81146110e757600080fd5b5056fea26469706673582212200376cb7932c108b8af7d6edebd3d8962ed694a0a7e7463d49599ee7c30dbcdaa64736f6c63430008040033",
  "linkReferences": {},
  "deployedLinkReferences": {}
}