{
  "_format": "hh-sol-artifact-1",
  "contractName": "Airdropper",
  "sourceName": "contracts/airdropper/Airdropper.sol",
  "abi": [
    {
      "inputs": [
        {
          "internalType": "address",
          "name": "_token",
          "type": "address"
        }
      ],
      "stateMutability": "nonpayable",
      "type": "constructor"
    },
    {
      "anonymous": false,
      "inputs": [
        {
          "indexed": true,
          "internalType": "address",
          "name": "previousOwner",
          "type": "address"
        },
        {
          "indexed": true,
          "internalType": "address",
          "name": "newOwner",
          "type": "address"
        }
      ],
      "name": "OwnershipTransferred",
      "type": "event"
    },
    {
      "inputs": [],
      "name": "owner",
      "outputs": [
        {
          "internalType": "address",
          "name": "",
          "type": "address"
        }
      ],
      "stateMutability": "view",
      "type": "function"
    },
    {
      "inputs": [],
      "name": "renounceOwnership",
      "outputs": [],
      "stateMutability": "nonpayable",
      "type": "function"
    },
    {
      "inputs": [
        {
          "internalType": "address",
          "name": "newOwner",
          "type": "address"
        }
      ],
      "name": "transferOwnership",
      "outputs": [],
      "stateMutability": "nonpayable",
      "type": "function"
    },
    {
      "inputs": [
        {
          "internalType": "address[]",
          "name": "_receivers",
          "type": "address[]"
        },
        {
          "internalType": "uint256",
          "name": "_amount",
          "type": "uint256"
        }
      ],
      "name": "transferToUsers",
      "outputs": [],
      "stateMutability": "nonpayable",
      "type": "function"
    },
    {
      "inputs": [],
      "name": "treeb",
      "outputs": [
        {
          "internalType": "contract IERC20",
          "name": "",
          "type": "address"
        }
      ],
      "stateMutability": "view",
      "type": "function"
    },
    {
      "inputs": [],
      "name": "withdrawResidualToken",
      "outputs": [],
      "stateMutability": "nonpayable",
      "type": "function"
    }
  ],
  "bytecode": "0x60a06040523480156200001157600080fd5b5060405162001399380380620013998339818101604052810190620000379190620001c8565b620000576200004b6200009260201b60201c565b6200009a60201b60201c565b8073ffffffffffffffffffffffffffffffffffffffff1660808173ffffffffffffffffffffffffffffffffffffffff168152505050620001fa565b600033905090565b60008060009054906101000a900473ffffffffffffffffffffffffffffffffffffffff169050816000806101000a81548173ffffffffffffffffffffffffffffffffffffffff021916908373ffffffffffffffffffffffffffffffffffffffff1602179055508173ffffffffffffffffffffffffffffffffffffffff168173ffffffffffffffffffffffffffffffffffffffff167f8be0079c531659141344cd1fd0a4f28419497f9722a3daafe3b4186f6b6457e060405160405180910390a35050565b600080fd5b600073ffffffffffffffffffffffffffffffffffffffff82169050919050565b6000620001908262000163565b9050919050565b620001a28162000183565b8114620001ae57600080fd5b50565b600081519050620001c28162000197565b92915050565b600060208284031215620001e157620001e06200015e565b5b6000620001f184828501620001b1565b91505092915050565b60805161116f6200022a6000396000818160f10152818161026d0152818161034901526103f1015261116f6000f3fe608060405234801561001057600080fd5b50600436106100625760003560e01c806363451d4114610067578063715018a6146100855780638da5cb5b1461008f5780639f2e35d8146100ad578063d29d6462146100c9578063f2fde38b146100d3575b600080fd5b61006f6100ef565b60405161007c919061096e565b60405180910390f35b61008d610113565b005b61009761019b565b6040516100a491906109aa565b60405180910390f35b6100c760048036038101906100c29190610b94565b6101c4565b005b6100d16102c9565b005b6100ed60048036038101906100e89190610bf0565b610438565b005b7f000000000000000000000000000000000000000000000000000000000000000081565b61011b610530565b73ffffffffffffffffffffffffffffffffffffffff1661013961019b565b73ffffffffffffffffffffffffffffffffffffffff161461018f576040517f08c379a000000000000000000000000000000000000000000000000000000000815260040161018690610c7a565b60405180910390fd5b6101996000610538565b565b60008060009054906101000a900473ffffffffffffffffffffffffffffffffffffffff16905090565b6101cc610530565b73ffffffffffffffffffffffffffffffffffffffff166101ea61019b565b73ffffffffffffffffffffffffffffffffffffffff1614610240576040517f08c379a000000000000000000000000000000000000000000000000000000000815260040161023790610c7a565b60405180910390fd5b60005b82518110156102c4576102b183828151811061026257610261610c9a565b5b6020026020010151837f000000000000000000000000000000000000000000000000000000000000000073ffffffffffffffffffffffffffffffffffffffff166105fc9092919063ffffffff16565b80806102bc90610cf8565b915050610243565b505050565b6102d1610530565b73ffffffffffffffffffffffffffffffffffffffff166102ef61019b565b73ffffffffffffffffffffffffffffffffffffffff1614610345576040517f08c379a000000000000000000000000000000000000000000000000000000000815260040161033c90610c7a565b60405180910390fd5b60007f000000000000000000000000000000000000000000000000000000000000000073ffffffffffffffffffffffffffffffffffffffff166370a08231306040518263ffffffff1660e01b81526004016103a091906109aa565b602060405180830381865afa1580156103bd573d6000803e3d6000fd5b505050506040513d601f19601f820116820180604052508101906103e19190610d56565b90506104356103ee61019b565b827f000000000000000000000000000000000000000000000000000000000000000073ffffffffffffffffffffffffffffffffffffffff166105fc9092919063ffffffff16565b50565b610440610530565b73ffffffffffffffffffffffffffffffffffffffff1661045e61019b565b73ffffffffffffffffffffffffffffffffffffffff16146104b4576040517f08c379a00000000000000000000000000000000000000000000000000000000081526004016104ab90610c7a565b60405180910390fd5b600073ffffffffffffffffffffffffffffffffffffffff168173ffffffffffffffffffffffffffffffffffffffff161415610524576040517f08c379a000000000000000000000000000000000000000000000000000000000815260040161051b90610df5565b60405180910390fd5b61052d81610538565b50565b600033905090565b60008060009054906101000a900473ffffffffffffffffffffffffffffffffffffffff169050816000806101000a81548173ffffffffffffffffffffffffffffffffffffffff021916908373ffffffffffffffffffffffffffffffffffffffff1602179055508173ffffffffffffffffffffffffffffffffffffffff168173ffffffffffffffffffffffffffffffffffffffff167f8be0079c531659141344cd1fd0a4f28419497f9722a3daafe3b4186f6b6457e060405160405180910390a35050565b61067d8363a9059cbb60e01b848460405160240161061b929190610e24565b604051602081830303815290604052907bffffffffffffffffffffffffffffffffffffffffffffffffffffffff19166020820180517bffffffffffffffffffffffffffffffffffffffffffffffffffffffff8381831617835250505050610682565b505050565b60006106e4826040518060400160405280602081526020017f5361666545524332303a206c6f772d6c6576656c2063616c6c206661696c65648152508573ffffffffffffffffffffffffffffffffffffffff166107499092919063ffffffff16565b905060008151111561074457808060200190518101906107049190610e85565b610743576040517f08c379a000000000000000000000000000000000000000000000000000000000815260040161073a90610f24565b60405180910390fd5b5b505050565b60606107588484600085610761565b90509392505050565b6060824710156107a6576040517f08c379a000000000000000000000000000000000000000000000000000000000815260040161079d90610fb6565b60405180910390fd5b6107af85610875565b6107ee576040517f08c379a00000000000000000000000000000000000000000000000000000000081526004016107e590611022565b60405180910390fd5b6000808673ffffffffffffffffffffffffffffffffffffffff16858760405161081791906110bc565b60006040518083038185875af1925050503d8060008114610854576040519150601f19603f3d011682016040523d82523d6000602084013e610859565b606091505b5091509150610869828286610888565b92505050949350505050565b600080823b905060008111915050919050565b60608315610898578290506108e8565b6000835111156108ab5782518084602001fd5b816040517f08c379a00000000000000000000000000000000000000000000000000000000081526004016108df9190611117565b60405180910390fd5b9392505050565b600073ffffffffffffffffffffffffffffffffffffffff82169050919050565b6000819050919050565b600061093461092f61092a846108ef565b61090f565b6108ef565b9050919050565b600061094682610919565b9050919050565b60006109588261093b565b9050919050565b6109688161094d565b82525050565b6000602082019050610983600083018461095f565b92915050565b6000610994826108ef565b9050919050565b6109a481610989565b82525050565b60006020820190506109bf600083018461099b565b92915050565b6000604051905090565b600080fd5b600080fd5b600080fd5b6000601f19601f8301169050919050565b7f4e487b7100000000000000000000000000000000000000000000000000000000600052604160045260246000fd5b610a27826109de565b810181811067ffffffffffffffff82111715610a4657610a456109ef565b5b80604052505050565b6000610a596109c5565b9050610a658282610a1e565b919050565b600067ffffffffffffffff821115610a8557610a846109ef565b5b602082029050602081019050919050565b600080fd5b610aa481610989565b8114610aaf57600080fd5b50565b600081359050610ac181610a9b565b92915050565b6000610ada610ad584610a6a565b610a4f565b90508083825260208201905060208402830185811115610afd57610afc610a96565b5b835b81811015610b265780610b128882610ab2565b845260208401935050602081019050610aff565b5050509392505050565b600082601f830112610b4557610b446109d9565b5b8135610b55848260208601610ac7565b91505092915050565b6000819050919050565b610b7181610b5e565b8114610b7c57600080fd5b50565b600081359050610b8e81610b68565b92915050565b60008060408385031215610bab57610baa6109cf565b5b600083013567ffffffffffffffff811115610bc957610bc86109d4565b5b610bd585828601610b30565b9250506020610be685828601610b7f565b9150509250929050565b600060208284031215610c0657610c056109cf565b5b6000610c1484828501610ab2565b91505092915050565b600082825260208201905092915050565b7f4f776e61626c653a2063616c6c6572206973206e6f7420746865206f776e6572600082015250565b6000610c64602083610c1d565b9150610c6f82610c2e565b602082019050919050565b60006020820190508181036000830152610c9381610c57565b9050919050565b7f4e487b7100000000000000000000000000000000000000000000000000000000600052603260045260246000fd5b7f4e487b7100000000000000000000000000000000000000000000000000000000600052601160045260246000fd5b6000610d0382610b5e565b91507fffffffffffffffffffffffffffffffffffffffffffffffffffffffffffffffff821415610d3657610d35610cc9565b5b600182019050919050565b600081519050610d5081610b68565b92915050565b600060208284031215610d6c57610d6b6109cf565b5b6000610d7a84828501610d41565b91505092915050565b7f4f776e61626c653a206e6577206f776e657220697320746865207a65726f206160008201527f6464726573730000000000000000000000000000000000000000000000000000602082015250565b6000610ddf602683610c1d565b9150610dea82610d83565b604082019050919050565b60006020820190508181036000830152610e0e81610dd2565b9050919050565b610e1e81610b5e565b82525050565b6000604082019050610e39600083018561099b565b610e466020830184610e15565b9392505050565b60008115159050919050565b610e6281610e4d565b8114610e6d57600080fd5b50565b600081519050610e7f81610e59565b92915050565b600060208284031215610e9b57610e9a6109cf565b5b6000610ea984828501610e70565b91505092915050565b7f5361666545524332303a204552433230206f7065726174696f6e20646964206e60008201527f6f74207375636365656400000000000000000000000000000000000000000000602082015250565b6000610f0e602a83610c1d565b9150610f1982610eb2565b604082019050919050565b60006020820190508181036000830152610f3d81610f01565b9050919050565b7f416464726573733a20696e73756666696369656e742062616c616e636520666f60008201527f722063616c6c0000000000000000000000000000000000000000000000000000602082015250565b6000610fa0602683610c1d565b9150610fab82610f44565b604082019050919050565b60006020820190508181036000830152610fcf81610f93565b9050919050565b7f416464726573733a2063616c6c20746f206e6f6e2d636f6e7472616374000000600082015250565b600061100c601d83610c1d565b915061101782610fd6565b602082019050919050565b6000602082019050818103600083015261103b81610fff565b9050919050565b600081519050919050565b600081905092915050565b60005b8381101561107657808201518184015260208101905061105b565b83811115611085576000848401525b50505050565b600061109682611042565b6110a0818561104d565b93506110b0818560208601611058565b80840191505092915050565b60006110c8828461108b565b915081905092915050565b600081519050919050565b60006110e9826110d3565b6110f38185610c1d565b9350611103818560208601611058565b61110c816109de565b840191505092915050565b6000602082019050818103600083015261113181846110de565b90509291505056fea2646970667358221220838b621e3bf9510dd800de0bf97bebd2c0d07ae53a84044a3d39483e3a2d0f5d64736f6c634300080a0033",
  "linkReferences": {},
  "deployedLinkReferences": {}
}